:020000040800F2
:1000000000000120D1D1000861CE000863CE0008B5
:1000100065CE000867CE000869CE00080000000029
:100020000000000000000000000000006BCE00088F
:100030006DCE0008000000006FCE000871CE0008F1
:1000400021D2000821D2000821D2000821D20008C4
:1000500021D2000821D2000821D200087DC7000863
:10006000D1C7000825C8000821D2000821D2000805
:1000700021D2000821D2000821D2000821D2000894
:1000800021D2000821D2000821D20008000000007F
:100090000000000000000000000000004DC8000843
:1000A0001DC7000821D2000821D2000821D2000873
:1000B00021D2000821D20008ADC6000821D20008D4
:1000C00021D2000821D2000821D2000821D2000844
:1000D00021D20008B1CD000821D2000800000000A4
:1000E0007DC8000821D2000821D2000800000000CD
:1000F00000000000000000000000000021D2000805
:100100000000000021D200088DC6000821D200089E
:1001100000000000000000000000000021D20008E4
:1001200021D2000821D2000821D2000821D20008E3
:1001300021D20008000000000000000000000000C4
:1001400000000000000000000000000081CE000858
:1001500021D2000821D2000821D2000821D20008B3
:1001600021D2000821D20008000000000000000099
:10017000000000000000000000000000000000007F
:100180000000000021D20008000000000000000074
:0401900021D2000870
:1080000010B5054C237833B9044B13B10448AFF3D2
:1080100000800123237010BD28060020000000000E
:1080200010F3010808B5034B1BB103490348AFF334
:10803000008008BD000000002C06002010F301089D
:1080400010F8012B11F8013B012A28BF9A42F7D002
:10805000D01A7047034613F8012B002AFBD1181AD7
:108060000138704700000000000000000000000020
:1080700001F0FF01102A2BDB10F0070F08D010F8D9
:10808000013B013A8B422DD010F0070F42B3F6D1DD
:10809000F0B441EA012141EA014122F007047FF0F6
:1080A00000070023F0E80256083C85EA010586EA4D
:1080B000010685FA47F5A3FA87F586FA47F6A5FA89
:1080C00087F68EB9EED1F0BC01F0FF0102F0070295
:1080D00032B110F8013B013A83EA010313B1F8D140
:1080E0000020704701387047002D06BF3546033821
:1080F000073815F0010F07D1013015F4807F02BF5A
:10810000013015F4C03F0130F0BC0138704700BFAA
:1081100070B54FF0FF0C4CF4E06C1CEA11541DBF1D
:108120001CEA135594EA0C0F95EA0C0F00F0DEF8E8
:108130002C4481EA030621EA4C5123EA4C5350EACD
:10814000013518BF52EA033541F4801143F480131E
:1081500038D0A0FB02CE4FF00005E1FB02E506F0AF
:108160000042E0FB03E54FF00006E1FB03569CF004
:10817000000F18BF4EF0010EA4F1FF04B6F5007F0A
:1081800064F5407404D25FEA4E0E6D4146EB06067C
:1081900042EAC62141EA55514FEAC52040EA5E5005
:1081A0004FEACE2EB4F1FD0C88BFBCF5E06F1ED8AF
:1081B000BEF1004F08BF5FEA500E50F1000041EBE6
:1081C000045170BD06F0004646EA010140EA020093
:1081D00081EA0301B4EB5C04C2BFD4EB0C0541EAB5
:1081E000045170BD41F480114FF0000E013C00F3CA
:1081F000AB8014F1360FDEBF002001F0004170BDEE
:10820000C4F10004203C35DA0C341BDC04F1140406
:10821000C4F1200500FA05F320FA04F001FA05F292
:1082200040EA020001F0004221F0004110EBD3705F
:1082300021FA04F642EB06015EEA430E08BF20EA8B
:10824000D37070BDC4F10C04C4F1200500FA04F32E
:1082500020FA05F001FA04F240EA020001F00041C0
:1082600010EBD37041F100015EEA430E08BF20EA33
:10827000D37070BDC4F1200500FA05F24EEA020E7B
:1082800020FA04F301FA05F243EA020321FA04F0AA
:1082900001F0004121FA04F220EA020000EBD37061
:1082A0005EEA430E08BF20EAD37070BD94F0000F61
:1082B0000FD101F00046400041EB010111F4801F95
:1082C00008BF013CF7D041EA060195F0000F18BF46
:1082D000704703F00046520043EB030313F4801F82
:1082E00008BF013DF7D043EA0603704794EA0C0F3C
:1082F0000CEA135518BF95EA0C0F0CD050EA410652
:1083000018BF52EA4306D1D181EA030101F00041CE
:108310004FF0000070BD50EA410606BF10461946F6
:1083200052EA430619D094EA0C0F02D150EA013602
:1083300013D195EA0C0F05D152EA03361CBF104643
:1083400019460AD181EA030101F0004141F0FE41E2
:1083500041F470014FF0000070BD41F0FE4141F466
:10836000780170BD81F0004102E000BF83F000435E
:1083700030B54FEA41044FEA430594EA050F08BFC0
:1083800090EA020F1FBF54EA000C55EA020C7FEA84
:10839000645C7FEA655C00F0E2804FEA5454D4EB01
:1083A0005555B8BF6D420CDD2C4480EA020281EACB
:1083B000030382EA000083EA010180EA020281EA03
:1083C0000303362D88BF30BD11F0004F4FEA013155
:1083D0004FF4801C4CEA113102D0404261EB410164
:1083E00013F0004F4FEA03334CEA133302D05242EA
:1083F00063EB430394EA050F00F0A780A4F10104A6
:10840000D5F1200E0DDB02FA0EFC22FA05F28018DF
:1084100041F1000103FA0EF2801843FA05F35941C5
:108420000EE0A5F120050EF1200E012A03FA0EFC44
:1084300028BF4CF0020C43FA05F3C01851EBE3716E
:1084400001F0004507D54FF0000EDCF1000C7EEB8B
:1084500000006EEB0101B1F5801F1BD3B1F5001FC9
:108460000CD349085FEA30004FEA3C0C04F10104E8
:108470004FEA445212F5800F80F09A80BCF1004F11
:1084800008BF5FEA500C50F1000041EB045141EA93
:10849000050130BD5FEA4C0C404141EB0101013C5C
:1084A00028BFB1F5801FE9D291F0000F04BF01464B
:1084B0000020B1FA81F308BF2033A3F10B03B3F11D
:1084C00020020CDA0C3208DD02F1140CC2F10C02AD
:1084D00001FA0CF021FA02F10CE002F11402D8BF0B
:1084E000C2F1200C01FA02F120FA0CFCDCBF41EAD7
:1084F0000C019040E41AA2BF01EB0451294330BDA6
:108500006FEA04041F3C1CDA0C340EDC04F1140482
:10851000C4F1200220FA04F001FA02F340EA030059
:1085200021FA04F345EA030130BDC4F10C04C4F19F
:10853000200220FA02F001FA04F340EA030029467F
:1085400030BD21FA04F0294630BD94F0000F83F4C9
:10855000801306BF81F480110134013D4EE77FEAAC
:10856000645C18BF7FEA655C29D094EA050F08BFF8
:1085700090EA020F05D054EA000C04BF19461046D9
:1085800030BD91EA030F1EBF0021002030BD5FEA1D
:10859000545C05D14000494128BF41F0004130BD45
:1085A00014F580043CBF01F5801130BD01F0004599
:1085B00045F0FE4141F470014FF0000030BD7FEA0C
:1085C000645C1ABF194610467FEA655C1CBF0B4607
:1085D000024650EA013406BF52EA033591EA030F1E
:1085E00041F4002130BD00BF90F0000F04BF002116
:1085F000704730B54FF4806404F132044FF0000549
:108600004FF0000150E700BF90F0000F04BF0021C1
:10861000704730B54FF4806404F1320410F0004527
:1086200048BF40424FF000013EE700BF42004FEA22
:10863000E2014FEA31014FEA02701FBF12F07F439F
:1086400093F07F4F81F06051704732F07F4208BF56
:10865000704793F07F4F04BF41F40021704730B55D
:108660004FF4607401F0004521F000411CE700BFA9
:1086700050EA010208BF704730B54FF000050AE02C
:1086800050EA010208BF704730B511F0004502D52D
:10869000404261EB41014FF4806404F132045FEA2F
:1086A000915C3FF4D8AE4FF003025FEADC0C18BFD8
:1086B00003325FEADC0C18BF033202EBDC02C2F1CA
:1086C000200300FA03FC20FA02F001FA03FE40EA5C
:1086D0000E0021FA02F11444BDE600BF4FEA410248
:1086E000B2F1E04324BFB3F5001CDCF1FE5C0DD910
:1086F00001F0004C4FEAC0024CEA5070B2F1004F5A
:1087000040EB830008BF20F00100704711F0804F5C
:1087100021D113F13872BCBF01F00040704741F421
:1087200080114FEA5252C2F11802C2F1200C10FA25
:108730000CF320FA02F018BF40F001004FEAC12309
:108740004FEAD32303FA0CFC40EA0C0023FA02F3AD
:108750004FEA4303CCE77FEA625307D150EA013383
:108760001EBF4FF0FE4040F44000704701F0004053
:1087700040F0FE4040F40000704700BF53B94AB9D2
:10878000002908BF00281CBF4FF0FF314FF0FF3019
:1087900000F074B9ADF1080C6DE904CE00F006F8F4
:1087A000DDF804E0DDE9022304B070472DE9F0476D
:1087B000089D04468E46002B4DD18A42944669D9C5
:1087C000B2FA82F252B101FA02F3C2F1200120FAA8
:1087D00001F10CFA02FC41EA030E94404FEA1C48F6
:1087E000210CBEFBF8F61FFA8CF708FB16E341EAF2
:1087F000034306FB07F199420AD91CEB030306F178
:10880000FF3080F01F81994240F21C81023E634498
:108810005B1AA4B2B3FBF8F008FB103344EA03443C
:1088200000FB07F7A7420AD91CEB040400F1FF3351
:1088300080F00A81A74240F207816444023840EA8E
:108840000640E41B00261DB1D4400023C5E90043C7
:108850003146BDE8F0878B4209D9002D00F0EF804A
:108860000026C5E9000130463146BDE8F087B3FA7D
:1088700083F6002E4AD18B4202D3824200F2F98065
:10888000841A61EB030301209E46002DE0D0C5E968
:10889000004EDDE702B9FFDEB2FA82F2002A40F0B4
:1088A0009280A1EB0C014FEA1C471FFA8CFE0126B7
:1088B000200CB1FBF7F307FB131140EA01410EFB5B
:1088C00003F0884208D91CEB010103F1FF3802D202
:1088D000884200F2CB804346091AA4B2B1FBF7F0FC
:1088E00007FB101144EA01440EFB00FEA64508D91F
:1088F0001CEB040400F1FF3102D2A64500F2BB805C
:108900000846A4EB0E0440EA03409CE7C6F12007AA
:10891000B34022FA07FC4CEA030C20FA07F401FAF0
:1089200006F31C43F9404FEA1C4900FA06F3B1FB79
:10893000F9F8200C1FFA8CFE09FB181140EA0141DE
:1089400008FB0EF0884202FA06F20BD91CEB01017B
:1089500008F1FF3A80F08880884240F28580A8F1D3
:1089600002086144091AA4B2B1FBF9F009FB101125
:1089700044EA014100FB0EFE8E4508D91CEB0101C3
:1089800000F1FF346CD28E456AD90238614440EA66
:108990000840A0FB0294A1EB0E01A142C846A646E6
:1089A00056D353D05DB1B3EB080261EB0E0101FA6F
:1089B00007F722FA06F3F1401F43C5E900710026CC
:1089C0003146BDE8F087C2F12003D8400CFA02FC22
:1089D00021FA03F3914001434FEA1C471FFA8CFE32
:1089E000B3FBF7F007FB10360B0C43EA064300FB22
:1089F0000EF69E4204FA02F408D91CEB030300F1C0
:108A0000FF382FD29E422DD9023863449B1B89B276
:108A1000B3FBF7F607FB163341EA034106FB0EF3FF
:108A20008B4208D91CEB010106F1FF3816D28B42AC
:108A300014D9023E6144C91A46EA004638E72E4678
:108A4000284605E70646E3E61846F8E64B45A9D270
:108A5000B9EB020864EB0C0E0138A3E74646EAE7DF
:108A6000204694E74046D1E7D0467BE7023B61448D
:108A700032E7304609E76444023842E7704700BFF6
:108A800038B50E4A0E4B054618784FF47A73B3FB8F
:108A9000F0F31068B0FBF3F000F0BCF8044658B9EE
:108AA0000F2D09D8024629464FF0FF3000F05EF83E
:108AB000044B20461D6038BD0120FCE7C4030020A4
:108AC000000000200400002008B50B4B1A6842F497
:108AD00000721A601A6842F480621A601A6842F4DE
:108AE00080721A60032000F02FF80020FFF7C8FF03
:108AF00004F098F9002008BD003C0240034A044BF2
:108B000011681B780B441360704700BF44060020B7
:108B100000000020014B1868704700BF4406002089
:108B200038B50446FFF7F6FF631C1CBF054B1B78E6
:108B3000054618BFE418FFF7EDFF431BA342FAD325
:108B400038BD00BF000000200749CA6822F4E06277
:108B50000302120403F4E063120C134343F0BF63F7
:108B600043F40033CB60704700ED00E0164B30B5A6
:108B7000DC68C4F30224C4F10705231D042D28BFBB
:108B80000425062B4FF0FF338CBF033C002403FA6F
:108B900005F521EA0501A34022EA0302A1400028CD
:108BA00041EA0203ACBF00F16040084A4FEA0313F8
:108BB000B8BF00F00F00DBB2AABF00F5614013544C
:108BC00080F8003330BD00BF00ED00E014ED00E0A0
:108BD000002808DB4209012300F01F0003FA00F01F
:108BE000014B43F82200704700E100E000280DDB54
:108BF0004309012200F01F0002FA00F02033044A6A
:108C000042F82300BFF34F8FBFF36F8F704700BF51
:108C100000E100E00138B0F1807F0BD24FF0E0239B
:108C2000054A5861F02182F823100020072298613C
:108C30001A6170470120704700ED00E0094910B546
:108C40000C6924F440740C610C6944F440740C61A8
:108C50000C6944F001040C610260BFF36F8F436044
:108C600010BD00BF003C0240074B1A6922F440725D
:108C70001A611A6942F400721A611A6942F001021B
:108C80001A610160704700BF003C0240074B1A693F
:108C900022F440721A611A6942F480721A611A69E8
:108CA00042F001021A610180704700BF003C02409F
:108CB000204BDA68D00606D51F49CA6942F0100277
:108CC000CA611022DA60DA68910606D51A49CA69C3
:108CD00042F00802CA612022DA60164BDA685206B6
:108CE00006D51549CA6942F00402CA614022DA6019
:108CF000DA68100606D51049CA6942F00202CA6154
:108D00008022DA600B4BDA68D10507D50A49CA69B7
:108D100042F00102CA614FF48072DA60DA689207A9
:108D200006D50549CA6942F02002CA610222DA600A
:108D3000704700BF003C024048060020064B1A69FD
:108D4000002ABFBF054A5A6002F188325A60BABF92
:108D50001869C00F00207047003C0240230167459E
:108D6000034A136943F0004313610020704700BFBA
:108D7000003C0240114B70B500220446DA61FFF757
:108D8000C9FE0F4D0646EB68DA030CD4EB68DB072F
:108D900044BF0123EB60E86810F4F97007D0FFF7D7
:108DA00087FF012003E0611CEDD00CB9032070BDEA
:108DB000FFF7B0FE801BA042E5D9F7E74806002088
:108DC000003C0240F7B5204E01931446327E012A42
:108DD00007460D4635D001224CF250303276FFF76F
:108DE000C9FFB8B9019BCFB9184B1A6922F4407278
:108DF0001A611A691A611A69E4B242F001021A6131
:108E00002C704CF25030FFF7B5FF104A136923F075
:108E1000010313610023337603B0F0BD012F04D1A9
:108E2000A1B22846FFF732FFEBE7022F04D121461B
:108E30002846FFF719FFE4E722462846FFF7FEFE23
:108E4000DFE70220E8E700BF48060020003C0240C0
:108E5000074B196921F440711961196941F0040146
:108E600019611A6942EA002040F4803018617047A5
:108E7000003C024039B101291CD002290CBF4FF43B
:108E800000714FF440710D4B1A6922F440721A615F
:108E90001A69114319611A6922F0F8021A611A69F4
:108EA00042EAC00040F0020018611A6942F48032C0
:108EB0001A6170474FF48071E5E700BF003C024043
:108EC000144B1A6891050FD51A6822F400721A60C3
:108ED0001A6842F400621A601A6822F400621A608A
:108EE0001A6842F400721A600A4B1A6852050FD5CC
:108EF0001A6822F480621A601A6842F480521A607A
:108F00001A6822F480521A601A6842F480621A6069
:108F1000704700BF003C02402DE9F843DFF8948021
:108F200098F81830012B05460F463FD001234CF22C
:108F3000503088F81830FFF71DFF0446A0B94FF0F5
:108F4000FF333B602B68012B14D1287CFFF780FF97
:108F50004CF25030FFF70EFF154A136923F004035B
:108F600004461361FFF7ACFF002388F81830204651
:108F7000BDE8F883AE68DFF83890D5E902231344E2
:108F8000B342EFD9297C3046FFF774FF4CF25030E2
:108F9000FFF7F0FED9F8103023F0FA03C9F81030CB
:108FA00010B13E600446DDE70136E6E70224DEE765
:108FB000003C0240480600202DE9F74FDFF8888189
:108FC0005F4A00234FF001090D6809FA03F404EA2F
:108FD0000506AC4340F0A5804C6824F0100C4FEA25
:108FE000430E03250CF1FF3705FA0EF5012F6FEA4A
:108FF000050511D8876807EA050ACF6807FA0EF752
:1090000047EA0A078760476827EA060AC4F3001799
:109010009F4047EA0A074760C76807EA050A8F6862
:1090200007FA0EF747EA0A07BCF1020FC76016D12C
:109030004FEAD30A00EB8A0A03F0070BDAF8207034
:109040004FEA8B0B4FF00F0C0CFA0BFC27EA0C0CC1
:109050000F6907FA0BF747EA0C07CAF82070076890
:109060003D4004F0030707FA0EF73D430560E500B5
:1090700057D54FF0000BCDF804B0D8F84470314DFF
:1090800047F48047C8F84470D8F8447007F4804724
:109090000197019F23F0030707F1804707F59C37ED
:1090A00003F0030ED7F808A04FEA8E0E4FF00F0C16
:1090B0000CFA0EFCA8422AEA0C0C39D005F58065A2
:1090C000A84237D005F58065A84235D005F5806502
:1090D000A84233D005F58065A8420CBF04250725BA
:1090E00005FA0EF545EA0C05BD601568F74314F462
:1090F000803F0CBF3D4035431560556814F4003F78
:109100000CBF3D4035435560956814F4801F0CBF7B
:109110003D4035439560D568A40254BF3D4035437A
:10912000D5600133102B7FF44FAF03B0BDE8F08F53
:109130005D46D5E70125D3E70225D1E70325CFE733
:10914000003C01400000024000380240F0B50446F7
:109150008BB060B390F8BD33056803F0FF021BB914
:1091600080F8BC2304F040F9032384F8BD33EB6B93
:10917000254613F4807355F8100B08BF236101F0E6
:1091800065F80FCD6E460FC60FCD0FC695E80300EC
:1091900086E803002546271D97E80E0055F8100BBA
:1091A00000F09EFF064620B1022384F8BD3301255E
:1091B0004EE00146206801F04FF83046D4F804C074
:1091C0001C264FF0010E0146C2B2944500F1010089
:1091D0001CD800231C261946D8B2844503F101038C
:1091E00022D80FCD6E460FC60FCD0FC695E80300EF
:1091F00086E8030097E80E00206801F06FF801236D
:109200000546F0B1022284F8BD23D0E706FB0243F5
:10921000C3E9111183F83DE083F83C20A3F8422014
:1092200083F83F101965CFE706FB0042C2E98111C0
:1092300082F8FD1182F8FC0182F8FF11C2F81012C9
:10924000CAE784F83800206884F8BD3301F09AFB3F
:1092500028460BB0F0BD10B50446006894F8BC3346
:10926000012B15D0012384F8BC33A36A012B06D14E
:10927000A369012B1EBF836B43F48033836300F02B
:10928000DFFF206801F070FB002084F8BC0310BDF4
:109290000220FCE72DE9F04F066887B0044630460F
:1092A00001F0ADFB0290002840F02481206801F01D
:1092B00077FB002800F01E81206801F071FB820717
:1092C00048BF2268206842BF536903F0020353611C
:1092D00001F066FBC3062AD52268936923F01003C8
:1092E0009361376AC7F34343022B07F00F0540F041
:1092F000048147F6F0731F4214D01C2303FB05457D
:10930000C7F30A184246D5F80812304601F0BAFAF7
:10931000D5F80822D5F8143242444344C5F808224F
:10932000C5F814322268936943F0100393612068F2
:1093300001F036FB070300F1F480206801F030FBF8
:1093400045030CD5206801F037FB2546039006F550
:1093500010694FF00008039B002B40F08A812068C1
:1093600001F01EFB002815DAD6F8043823F00103BB
:10937000C6F8043894F8F433012B40F00A82002137
:1093800084F8F413204600F08CFB2268536903F044
:1093900000435361206801F003FB01050BD5D6F8AB
:1093A0000838DA0702D5204604F08EF8226853699F
:1093B00003F400635361206801F0F2FAC30437D567
:1093C000D6F80438206823F001031021C6F80438C9
:1093D00000F05AFF06F5006506F510634FF67F3181
:1093E00062680298824200F2D881EB6943F001136F
:1093F000EB61236B002B00F0EC81D5F8843043F057
:109400000B03C5F884306B6C43F00B036B64D6F828
:109410000038217C206823F4FE63C6F8003804F588
:10942000717201F001FB2268536903F480535361A8
:10943000206801F0B5FA870416D5206801F0E3FA38
:10944000206801F003F8E060256800F09FFD227BB2
:109450000146284600F084FE204604F022F82268E7
:10946000536903F400535361206801F099FA060729
:1094700007D5204604F011F82268536903F0080369
:109480005361206801F08CFAC50208D500212046FE
:1094900004F03AF82268536903F48013536120689A
:1094A00001F07EFA800208D50021204604F028F859
:1094B0002268536903F400135361206801F070FAC5
:1094C000410007D5204604F023F82268536903F0D1
:1094D00080435361206801F063FA42070AD523688C
:1094E0005D686B0702D5204604F016F822685368C1
:1094F0002B43536007B0BDE8F08F062B7FF412AF0B
:10950000082204F57171304601F0BCF91C2303FBFD
:109510000545C7F30A17D5F814321F44C5F814726D
:1095200000E72068DFF8C4B201F03EFA06F53067C4
:109530000390A2460025039B002B3FF4FEAE039B45
:10954000D80756D55FFA85F92068494601F03CFAFC
:1095500010F0010F80461AD02068216900F5306CA8
:1095600001220CEB451CBA600129036CDCF80820D1
:1095700066D1110706D55B4509D9100407D54FF40C
:10958000004302E091063CD52023CCF8083018F0C7
:10959000080F1ED023680822BA601A6C03F53063E6
:1095A00003EB45135A45996804D9090444BF4FF4A5
:1095B000004199602046049203F058FF049A5A45EE
:1095C00007D92169012904D1206804F5717201F0DD
:1095D0002BFA18F0100F1CBF1023BB6018F0200FDF
:1095E0001CBF2023BB6018F4005F1CBF4FF4005366
:1095F000BB60039B5B080135039320370AF11C0A0B
:1096000099E712F0280FC2D15B4501D91204B6D4F4
:10961000DCF81020DAF80412C2F312028A1ACAF82F
:109620001422DAF808220A44CAF8082295B9D4F8B4
:1096300010227AB904F57172012101F0F5F909E0FF
:1096400069498B420BD1130499D4900602D520228C
:10965000CCF808204946204603F00EFF97E7002D7E
:10966000F8D1D4F81022002AF4D104F571722946F9
:10967000E3E7039BDA0740F183805FFA88FB206809
:10968000594601F0AAF9C307074621D5D6F8343860
:109690002169012008F00F0200FA02F223EA020316
:1096A0008142C6F83438C9F808000DD1D5E9112334
:1096B0001344AB64B8F1000F06D1236D23B92068C1
:1096C00004F5717201F0B0F95946204603F0DDFE51
:1096D000380744BF0823C9F80830F90644BF1023EF
:1096E000C9F808307A0644BF4023C9F80830BB07E0
:1096F00044BF0223C9F80830380641D5D5E91432F1
:109700009A423DD89B1A6A6CD4F800A0934228BFB5
:10971000134603339B0804930AF5106303EB4813C5
:109720000593059B04999A6992B28A42D5E914730C
:1097300024D3BB420BD3DAF8343808F00F020121EE
:1097400001FA02F223EA0203CAF8343818E0FF1AD9
:109750006B6C9F4228BF1F46FB1C9B080493237C15
:109760000093A96CBBB25A46504600F089FFAB6C1F
:109770003B44AB646B6D3B446B65D2E7BB42DAD2D2
:10978000039B5B0808F1010803931C3509F12009CC
:10979000E1E5204603F0B0FEF7E599601A6822F48F
:1097A00000121A601A6842F000621A60C3F80812C8
:1097B000D3F8002222F40012C3F80022D3F80022CA
:1097C00042F00062C3F80022029A01320292203372
:1097D00006E66B6943F4005343F02B036B612B697E
:1097E00043F00B032B6112E60A31544F0A30544FF9
:1097F00010B590F8BC23012A04460BD0012280F852
:10980000BC2380F83810006801F09EF8002084F82E
:10981000BC0310BD0220FCE770B501F00F06C6EBDB
:10982000C60411F0800F05464FEA84044FF01C0077
:109830001FD000FB065004F13C010124294480F8AC
:109840003D408A604A780E70CB7002B1CE80022B08
:1098500004BF00230B7195F8BC33012B12D00123F8
:10986000286885F8BC3300F0FCFD002085F8BC03B7
:1098700070BD00FB065004F5FE710024294480F8F9
:10988000FD41DEE70220F3E710B5044601F00F00CA
:10989000C0EBC00311F0800F4FEA83034FF01C02AE
:1098A00016D002FB004203F13C010123214482F85F
:1098B0003D30087094F8BC33012B12D0012320688E
:1098C00084F8BC3300F00CFE002084F8BC0310BD0B
:1098D00002FB004203F5FE710023214482F8FD31B2
:1098E000E7E70220F3E738B501F00F051C2404FB7D
:1098F000050104FB050401F5FE71C4F810320023D4
:10990000C4F80822C4F8143284F8FD3184F8FC51FC
:1099100003690068012B08BFC4F80C22DAB21DB934
:1099200000F034FE002038BD00F0BEFEFAE701F082
:109930000F011C2303FB0100D0F81402704738B557
:1099400001F00F051C2404FB050104FB05043C3158
:109950002365002363650123A26484F83D3084F805
:109960003C5003690068012B08BFE264DAB21DB9FC
:1099700000F00CFE002038BD00F096FEFAE738B586
:10998000436801F00F059D4204462CD811F0800F6A
:109990004FF01C001ED000FB054200FB05410123D7
:1099A0003C3182F83D3001238B700D7094F8BC235C
:1099B0009A421AD0206884F8BC3300F071FF2DB9A8
:1099C000217C206804F5717201F02EF8002084F8E3
:1099D000BC0338BD00FB01431A4603F5FE710023AA
:1099E00082F8FD31DFE70120F3E70220F1E738B527
:1099F000436801F00F029A4204462AD8C2EBC20320
:109A000011F0800F4FEA83034FF01C0018D000FBC9
:109A1000024003F13C010123214480F83D30002540
:109A20008D700A7094F8BC33012B14D00123206888
:109A300084F8BC3300F05FFF84F8BC53284638BD7F
:109A400000FB024003F5FE710023214480F8FD3144
:109A5000E5E70120F3E70220F1E7006870B51204A2
:109A6000446A19B922438262002070BD836A4D1E88
:109A700004EB134400235E1CDBB29D4205D83F314A
:109A800000EB810022434260EEE7403300EB8303AA
:109A90005B6804EB13443346EDE70368002059622A
:109AA000704770472DE9F341044640B30368DD0772
:109AB00010D4236898075ED423681A0700F1A080A9
:109AC00023685B0700F1C080A069002840F028816E
:109AD00000202BE08F4B9A6802F00C02042A07D07A
:109AE0009A6802F00C02082A0BD15A68510208D574
:109AF000884B1B689A03DCD56368002BD9D1012001
:109B000014E06268B2F5803F13D11A6842F48032E3
:109B10001A60FEF7FFFF7F4E054633689B03C8D4EB
:109B2000FEF7F8FF401B6428F7D9032002B0BDE818
:109B3000F081784DB2F5A02F2B6807D143F4802334
:109B40002B602B6843F480332B60E2E723F48033EF
:109B50002B602B6823F480232B60002AD9D1FEF7D9
:109B6000D9FF06462B689F03A3D5FEF7D3FF801BC2
:109B70006428F7D9D9E7674B9A6812F00C0F07D021
:109B80009A6802F00C02082A11D15B685E020ED4BA
:109B9000604A13689D0702D5E368012BAFD11368B3
:109BA000216923F0F80343EAC103136084E7E26804
:109BB000594BB2B101221A60FEF7ACFF554D064673
:109BC0002B68980707D52B68226923F0F80343EA2E
:109BD000C2032B6070E7FEF79DFF801B0228EFD9C0
:109BE000A3E71A60FEF796FF4A4E054633689907C9
:109BF0007FF562AFFEF78EFF401B0228F6D994E78F
:109C00006269454B82B10122C3F8802EFEF782FFC4
:109C1000404E0546736F9F073FF552AFFEF77AFF40
:109C2000401B0228F6D980E7C3F8802EFEF772FFAA
:109C3000384E0546736F98077FF542AFFEF76AFF0F
:109C4000401B0228F6D970E7324B1A6C12F0805292
:109C500028D101921A6C42F080521A641B6C03F0F6
:109C600080530193019B01272C4D2B68D9051BD5EF
:109C7000A368284D012B27D12B6F43F001032B67DD
:109C8000FEF748FF234E054641F28838336F9B07A5
:109C900039D5002F3FF418AF1E4A136C23F08053C0
:109CA000136411E70027DFE72B6843F480732B6010
:109CB000FEF730FF06462B68DA05D9D4FEF72AFFF7
:109CC000801B0228F7D930E7052B04D12B6F43F016
:109CD00004032B67D0E72A6F22F001022A672A6F5C
:109CE00022F004022A67002BCAD1FEF713FF41F2CB
:109CF000883806462B6F9807CBD5FEF70BFF801BE5
:109D00004045F7D911E7FEF705FF401B4045BDD997
:109D10000BE700BF003802400000474200700040DF
:109D2000334DAB6803F00C03082B3DD0314B0022C0
:109D300002281A662BD1FEF7EDFE06462B68990124
:109D40001FD4D4E907321343626A43EA8213E26AFA
:109D500043EA0263A26A5208013A43EA02436B6093
:109D6000244B234D01221A66FEF7D4FE04462B68CD
:109D70009A013FF5ADAEFEF7CDFE001B0228F6D9E5
:109D8000D3E6FEF7C7FE801B0228D7D9CDE6FEF743
:109D9000C1FE04462B689B017FF59AAEFEF7BAFE22
:109DA000001B0228F6D9C0E601283FF4BFAE6B685D
:109DB000E26903F4800191427FF4A1AE216A03F0CD
:109DC0003F028A427FF49BAE616A47F6C0721A4036
:109DD0008A427FF494AEA16A03F440328A427FF44F
:109DE0008EAEE26A03F0706393423FF471AE86E692
:109DF0000038024000004742134908B58B6803F061
:109E00000C03042B1CD0082B1CD14A684B684968F2
:109E100013F4800314BF0D480D48C1F3881118BF17
:109E2000002302F03F02A1FB0001FEF7A7FC064B56
:109E30005B68C3F3014301335B00B0FBF3F008BD83
:109E40000248FCE70248FAE70038024040787D010A
:109E50000024F4002DE9F0410D46044610B901201C
:109E6000BDE8F081444B1A6802F00F028A4228D301
:109E7000226897072DD4D00741D43F4B1A6802F0CF
:109E80000F02AA4266D8226851076CD4130707D57F
:109E90003A4A2169936823F4604343EAC10393601B
:109EA000FFF7AAFF354B364A9B68C3F30313D35C15
:109EB000D840344B1860344B1868FEF7E1FD0020A1
:109EC000CEE7CAB21A701B6803F00F038B42C6D1EB
:109ED000CEE72A4B12F0040F1EBF996841F4E051FF
:109EE0009960160742BF996841F46041996023491F
:109EF000A0688B6823F0F00303438B60BBE76268C4
:109F00001E4B012A1CD11B6813F4003FA7D01B4E27
:109F1000B36823F003031343B360FEF7FBFD41F284
:109F200088380746B368626803F00C03B3EB820F0E
:109F3000A3D0FEF7EFFDC01B4045F3D903208FE708
:109F4000911E01291B6802D813F0007FDEE713F091
:109F5000020FDBE7EAB21A701B6803F00F03AB4293
:109F60007FF47DAF8FE70549E0688B6823F4E05309
:109F700003438B608AE700BF003C02400038024088
:109F8000C8F40108C403002004000020014B186835
:109F9000704700BFC4030020044B054A9B68C3F30D
:109FA0008223D35C034A1068D840704700380240CF
:109FB000D8F40108C4030020044B054A9B68C3F38E
:109FC0004233D35C034A1068D840704700380240DF
:109FD000D8F40108C40300200F2303600B4B9A68D8
:109FE00002F0030242609A6802F0F00282609A680E
:109FF00002F4E052C2609B68DB0803F4E0530361A3
:10A00000034B1B6803F00F030B60704700380240DE
:10A01000003C0240244A036890420ED0B0F1804FC9
:10A020000BD0A2F57C42904207D002F580629042AC
:10A0300003D002F58062904215D14A6823F0700384
:10A040001343194A904219D0B0F1804F16D0A2F5AF
:10A050007C42904212D002F5806290420ED002F50E
:10A06000806290420AD0114A904207D002F5806285
:10A07000904203D002F58062904203D1CA6823F473
:10A08000407313434A6923F08003134303608B68D2
:10A09000C3620B688362044B984204BF0B6903637D
:10A0A00001234361704700BF0000014000400140B0
:10A0B0000A4B013B0FD00269002AFADA0369074A0A
:10A0C00043F001030361013A05D0036913F0010372
:10A0D000F9D1184670470320704700BF410D0300B7
:10A0E00084B038B505AD85E80E000A9B012B044607
:10A0F00025D1836B23F480338363C36823F4840303
:10A1000023F04003C360C36823F44013C360119B72
:10A11000012B02BFC36843F48013C360FFF7C8FF7D
:10A12000089B012B07D1A36843F00603A360A36833
:10A1300043F02003A360BDE8384004B07047C36813
:10A1400043F04003C360FFF7B3FF0E9B23B9A36B3B
:10A1500043F48033A363E3E7A36B23F48033F9E78D
:10A16000022A4AD1274B284A0B44934239D9274B1C
:10A17000274A0B44934236D9264AA1F57403A3F526
:10A180001053934231D9244AA1F18373A3F5E743D5
:10A1900093422CD3214B224A0B44934229D9214B81
:10A1A000214A0B44934226D3204B214A0B4493422D
:10A1B00023D3204AA1F1B773A3F5585393421ED37A
:10A1C0001D4B1E4A0B44934234BF07230623C2682B
:10A1D00022F47052C260C26842EA8323C360002046
:10A1E00070470F23F3E70E23F1E70D23EFE70C236E
:10A1F000EDE70B23EBE70A23E9E70923E7E7082369
:10A20000E5E700BF405327FFFF340C00401E1BFF53
:10A210003F420F007F4F120020D6130060B6E5FECC
:10A220005FE3160000D3CEFE40771B00C05BB3FE99
:10A23000C091210020753800E05459FEE09C410097
:10A24000836843F00103836000207047836823F034
:10A25000010383600020704708B5C368012923F01B
:10A26000C043C36008D1C36843F00053C3603220C9
:10A27000FEF756FC002008BD19B9C36843F08043BF
:10A28000F4E70120F7E70000890141F02001064AC8
:10A290000161013A05D0036913F02003F9D1184692
:10A2A00070470320704700BF410D03001023064A8A
:10A2B0000361013A05D0036913F01003F9D1184680
:10A2C00070470320704700BF410D0300D0F80038ED
:10A2D0001943C0F8001800207047000084B02DE931
:10A2E000F843044609A880E80E00139D00230E469B
:10A2F000194603F1400204EB820201330F2B516037
:10A30000F7D104F50067002D6CD17B6843F00203A0
:10A310007B60A36B43F40013A363A36B23F40023BC
:10A32000A363A36B23F48023A3630023C4F8003E3C
:10A33000D4F80038C4F800380E9B012B5CD10B997F
:10A34000002957D12046FFF7C1FF10212046FFF713
:10A350009BFF01462046FFF7A9FF0843C0B2002338
:10A3600000383B6118BF01207B6104F51062FB617E
:10A3700019464FF0904C4FF0006E4FF67F38B342C5
:10A380003CD1002204F5306311464FF0904C4FF061
:10A39000006E4FF67F38B24243D13B6923F480739D
:10A3A0003B610023A3616FF0804363610C9B1BB989
:10A3B000A36943F01003A361A269234B1343A36174
:10A3C0000F9B1BB1A36943F00803A361012D01BFDB
:10A3D000A36943F0804343F00403A361BDE8F8435D
:10A3E00004B07047A36B23F40013A363A36B43F47F
:10A3F000002399E71946A5E70321A3E7D2F80090C7
:10A40000B9F1000F0BDA3BB9C2F800E0116101337A
:10A41000C2F808802032B2E7C2F800C0F6E7116047
:10A42000F4E7D3F80090B9F1000F0BDA3AB9C3F8AA
:10A4300000E019610132C3F808802033ABE7C3F8AC
:10A4400000C0F6E71960F4E700383C80D0F808381F
:10A4500013F0060004D013F0020F14BF02200F20E7
:10A46000704730B50D78012405F00F039C404B7800
:10A4700000F50062012B00EB4510D36918D11C4395
:10A48000D461D0F800391A0410D48A68D0F8004991
:10A49000C2F30A03CA78234343EA824343EA85535B
:10A4A00043F0805343F40043C0F80039002030BD2E
:10A4B00043EA0444D461D0F8003B1B04F6D48B6813
:10A4C000D0F8002BC3F30A031343CA7843EA82434C
:10A4D00043F0805343F40043C0F8003BE6E700003C
:10A4E00010B50A784978012900EB421300F50060A5
:10A4F00002F00F0222D1D3F8001900290BDAD3F8A9
:10A50000001941F00061C3F80019D3F8001941F0B7
:10A510008041C3F80019C46B012101FA02F224EA58
:10A520000204C463C16921EA0202C261D3F80019BE
:10A53000144A0A40C3F80029002010BDD3F8001BBC
:10A5400000290BDAD3F8001B41F00061C3F8001BAF
:10A55000D3F8001B41F08041C3F8001BC46B4FF4DB
:10A56000803101FA02F224EA0204C463C16921EADB
:10A570000202C261D3F8001B034A0A40C3F8002B51
:10A58000DAE700BF007833EC0078F3EF4B78DFF8C0
:10A59000ECC0F0B50E784D69374F012B00EB461437
:10A5A00046D104F51063BDB91D692F401F611D69B7
:10A5B00045F400251D611D6905EA0C05012A1D6190
:10A5C00023D10A6902B15A61D4F8003943F0044337
:10A5D000C4F800390020F0BDD3F810E00EEA0C0CEE
:10A5E000C3F810C0D3F810C00CEA07071F618F68CA
:10A5F000AF421D6938BF4F6145F400251D614D69AB
:10A600001F69C5F312053D43D8E7D4F8003943F07C
:10A610000443C4F800394B69002BDBD0D0F8342850
:10A6200006F00F060123B3401343C0F83438D1E7D6
:10A63000D4F8100B00EA0C00C4F8100BD4F8100B7F
:10A64000384004F530631861886805B148611D69B8
:10A6500045F400251D611D69C0F312002843012A3D
:10A66000186102D1CA6802B15A61D4F8003B43F0C4
:10A670000443C4F8003BADE7FFFF07E00000F8FF2C
:10A6800010B59DF8084044B9033301329B0800EB34
:10A69000023001EB83038B4201D1002010BD51F841
:10A6A000042B0260F7E700002DE9F3414D780E78A6
:10A6B0004B69CF78DFF8C0C1DFF8C0E1012D00EBB6
:10A6C000461440F08E8004F51065D5F810806BBB01
:10A6D00008EA0C0CC5F810C0D5F810C04CF4002CDA
:10A6E000C5F810C0D5F810C00CEA0E0EC5F810E081
:10A6F000012A4ED10B6903B16B61012F0CD1D0F847
:10A70000083813F4807FD4F800390CBF43F00053AD
:10A7100043F08053C4F80039D4F8003943F00443BF
:10A72000C4F80039002002B0BDE8F08108EA0E0E3E
:10A73000C5F810E0D5F810E00EEA0C0CD1F808E0EE
:10A74000C5F810C00EEB030C0CF1FF3CBCFBFEFE89
:10A75000DFF82CC1D5F810800CEACE4C4CEA080C7E
:10A76000C5F810C0D5F810E0C3F3120C4CEA0E0C7B
:10A77000012FC5F810C0BBD1D5F810C02CF0C04CCB
:10A78000C5F810C0D5F810C04CF0005CC5F810C07A
:10A79000AEE7D4F80059012F45F00445C4F800593C
:10A7A0000BD0002BBED0D0F8343806F00F020126B3
:10A7B00096401E43C0F83468B4E7D0F8085815F442
:10A7C000807FD4F800590CBF45F0005545F0805506
:10A7D000C4F800590092C9689BB23246FFF750FF97
:10A7E000A0E7D4F8106B06EA0E06C4F8106BD4F894
:10A7F000106B06EA0C0604F530652E618E681BBBF3
:10A800002B69C6F312061E432E612B6943F4002305
:10A810002B61012A02D1CB6803B16B61012F0CD1EE
:10A82000D0F8083813F4807FD4F8003B0CBF43F015
:10A83000005343F08053C4F8003BD4F8003B43F08E
:10A840000443C4F8003B6DE7DFF83480D5F810E02E
:10A850003344013BB3FBF6F31FFA83FC08EAC3431E
:10A8600043EA0E032B612B6906FB0CF6C6F31206B6
:10A870001E432E61CDE700BFFFFF07E00000F8FF99
:10A880000000F81F0332920801EB820200F58050AD
:10A89000914201D108467047036841F8043BF7E74D
:10A8A0004A780B78012A00EB431012D1D0F8002926
:10A8B000002A06DB2BB1D0F8003923F08043C0F822
:10A8C0000039D0F8003943F40013C0F800390020F3
:10A8D0007047D0F8002B002A06DB2BB1D0F8003BE4
:10A8E00023F08043C0F8003BD0F8003B43F4001352
:10A8F000C0F8003BEBE70B784A7800EB4310CB78CD
:10A90000012AA3F10203DBB20FD1D0F80029012BF9
:10A9100022F40012C0F8002905D8D0F8003943F01D
:10A920008053C0F8003900207047D0F8002B22F483
:10A930000012012BC0F8002B9EBFD0F8003B43F063
:10A940008053C0F8003BEEE7D0F8003823F4FE63F4
:10A95000C0F80038D0F80038090101F4FE6119434D
:10A96000C0F8001800207047D0F8003E23F0030321
:10A97000C0F8003ED0F8043823F00203C0F80438D1
:10A9800000207047D0F8003E23F00303C0F8003EDB
:10A99000D0F8043843F00203C0F8043800207047B0
:10A9A0004269806910407047D0F8183800F500609F
:10A9B000C0691840000C7047D0F8183800F50060E6
:10A9C000C069184080B2704700EB411100F500608B
:10A9D000D1F8082B40691040704710B5D0F81048E6
:10A9E000D0F8343800EB411001F00F01CB4000F5F6
:10A9F0001060DB018068DBB22343184010BD406962
:10AA000000F001007047D0F8003923F4FF6323F011
:10AA10000703C0F80039D0F8043843F48073C0F855
:10AA2000043800207047000030B5056C104CA5427A
:10AA300000F5306303D9D0F8004B002C16DB00245E
:10AA40001C611C6944F400241C611C6944F0180456
:10AA50001C611C69012944F0C0441C6101BF5A619A
:10AA6000D0F8003B43F08023C0F8003B002030BD0D
:10AA70000A30544FD0F8C03210B56BB1D0F8BC4298
:10AA800094F80002FF2807D09B6894F80122214621
:10AA90009847FF2384F80032002010BD4323038031
:10AAA000004870474000002043230380004870475F
:10AAB000840000204323038000487047D400002016
:10AAC0000A23038000487047C800002038B5D0F83A
:10AAD000BC4205466CB102F064FDD5F8C032C4F842
:10AAE0000C02DB68D4F8040204F5037198470020D7
:10AAF00038BD0320FCE7F8B5D0F8BC5203460A463F
:10AB00001DB3142606FB0106B46994B1D0F8C472D3
:10AB10004FF01C0C0CFB01777F6CB4FBF7FC07FBC0
:10AB20001C4434B9B4612346224602F080FD20461D
:10AB3000F8BDD3F8C032D5F808021B690024C5F867
:10AB4000144205F504719847F1E70320F0E700008F
:10AB50002DE9F7430A78D0F8BC724FF0000812F0E4
:10AB6000600405460E468DF80580ADF8068028D0B5
:10AB7000202C5ED1CC884B78E4B1120611D5D0F8E8
:10AB8000C0223946D2F8089018462246C847F288B3
:10AB90003946284600F092FC4446204603B0BDE802
:10ABA000F08387F8003287F801422246394600F0E8
:10ABB0009AFCF1E7D0F8C022184695682246A847CB
:10ABC000EBE74F780B2F34D801A353F827F000BFE1
:10ABD00001AC00089BAB000833AC000833AC0008A4
:10ABE00033AC000833AC000833AC000833AC0008C9
:10ABF00033AC000833AC000817AC00082BAC0008DD
:10AC000090F89C32032B14D102220DF1060100F0C2
:10AC100055FC3C46C1E790F89C32032B09D1012238
:10AC20000DF1050100F04AFCB7E790F89C32032BC8
:10AC3000B3D03146284600F01AFC0324ADE700BF2C
:10AC400038B504460025812102F0CDFC012125877D
:10AC5000204602F0C8FCA4F878518221204602F078
:10AC6000C2FCD4F8BC32E5644BB1D4F8C0325B68A6
:10AC70009847D4F8BC0211F0A7FCC4F8BC520020DD
:10AC800038BDF8B504464FF4077011F095FC054641
:10AC9000C4F8BC0210B902263046F8BD4FF4077262
:10ACA000002111F0B7FC237C8BBB4FF40073022210
:10ACB00081212046012602F08AFC26874FF400738A
:10ACC00031460222204602F082FC1023A4F878616B
:10ACD000A4F84E30032208238221204602F077FC9C
:10ACE000D4F8C0320121A4F84C101B689847267C88
:10ACF0000027C5F814720121C5F818728EB9D5F86D
:10AD000004224FF40073204602F09AFCC4E740236B
:10AD1000022281212046012602F059FC2687402389
:10AD2000CEE7D5F804224023204602F089FC3E46B7
:10AD3000B2E719B1C0F8C012002070470320704775
:10AD4000D0F8BC320020C3F80812C3F810227047B4
:10AD5000D0F8BC320020C3F804127047D0F8BC22EF
:10AD600010B57AB1D2F8144201236CB9C2F814328A
:10AD7000D2F81032C362D2F80822812102F057FCC7
:10AD8000204610BD0320FCE71846FAE7D0F8BC22A5
:10AD900010B582B1047CD2F8042234B94FF40073A8
:10ADA000012102F04DFC204610BD4023012102F09C
:10ADB00047FC0024F7E70324F5E7A0B1D0F8B83248
:10ADC00013B10023C0F8B832D0F8CC3213B100234D
:10ADD000C0F8CC3209B1C0F8B412012380F89C321B
:10ADE000027002F09DBB0320704737B50024054672
:10ADF000ADF8064051B1C0F8B8128B6A0DF10600EB
:10AE00009847C5F8CC02204603B030BD0320FBE7CD
:10AE100002F0D4BBD0F8B8320BB11B68184703203E
:10AE2000704708B5D0F8B8320BB15B68984700207E
:10AE300008BD38B5044600F2AA25284600F00CFBF0
:10AE4000012394F8AA12C4F89432B4F8B032C4F8CA
:10AE5000983201F01F03012B08D0022B0CD08BB9C4
:10AE600029462046BDE8384000F0FAB82946204679
:10AE7000BDE8384000F036BA29462046BDE83840E3
:10AE800000F056BA204601F08001BDE8384002F0DB
:10AE9000B3BB70B5044616460D46F9B9D0F89432E6
:10AEA000032B0CD1D0E9573293420AD99B1A9A420C
:10AEB000C0F85C3128BF1A46314600F021FB284615
:10AEC00070BDD0F8B8321B6923B190F89C22032AD8
:10AED00000D19847204600F01BFBF0E7D0F8B832CD
:10AEE0009B6933B190F89C22032A02D1BDE87040DF
:10AEF00018470325E3E770B5044616460D46D9BB4F
:10AF0000D0F89432022B0ED1D0E90732934213D9F4
:10AF10009A1AC261314600F0DEFA2B462A462946CB
:10AF2000204602F08DFB94F8A032012B02D10023C1
:10AF300084F8A032284670BD0CD18269934209D8AA
:10AF4000D0F898329A4205D20A4600F0C4FAC4F802
:10AF50009852E2E7D4F8B832DB682BB194F89C221F
:10AF6000032A01D1204698478021204602F044FB65
:10AF7000204600F0D8FAD6E7D0F8B8325B6933B192
:10AF800090F89C22032A02D1BDE87040184703259F
:10AF9000D0E7012370B580F89C32D0F8BC32002194
:10AFA0000446C0F894124160C0F8A4121BB1D0F856
:10AFB000B8325B689847002240251146012640239D
:10AFC000204602F004FBA4F86461C4F860512B46EB
:10AFD00000228021204602F0FAFAA6842562002091
:10AFE00070BD01740020704790F89C3280F89D324B
:10AFF000042380F89C320020704790F89C32042B88
:10B0000004BF90F89D3280F89C320020704708B54C
:10B0100090F89C22032A04D1D0F8B832DB6903B13E
:10B020009847002008BD002070470020704700208E
:10B030007047012208B580F89C22D0F8B82212B1DE
:10B04000526801799047002008BD10B58021044660
:10B0500002F0D2FA20460021BDE8104002F0CCBA3E
:10B06000F7B50D7805F06005202D04460E4614D086
:10B07000402D12D0002D40F0FE804F78092F00F2B5
:10B08000FA80DFE817F0FF002101F8001701F8004F
:10B0900082001300F800E8009E00D4F8B8329B68E4
:10B0A0003146204603B0BDE8F04018470023ADF814
:10B0B00006304B881A0A013A062A37D8DFE802F030
:10B0C000041C293636505A00D0F8B4321B68207C54
:10B0D0000DF106019847F288002A00F0F180BDF8D2
:10B0E00006301BB39A4228BF1A46ADF80620014627
:10B0F000204600F0E3F91CE0027CD0F8B83232B907
:10B100009B6A0DF10600984702234370E3E7DB6A70
:10B11000F7E7DBB2052B09D8DFE803F0030E1216C0
:10B120001A1ED0F8B4325B68002BD0D12046FFF74E
:10B130008CFF284603B0F0BDD0F8B4329B68F3E72B
:10B14000D0F8B432DB68EFE7D0F8B4321B69EBE734
:10B15000D0F8B4325B69E7E7D0F8B4329B69E3E733
:10B16000037C002BE2D1D0F8B8320DF106005B6B06
:10B170009847B0E7037C002BD8D1D0F8B8320DF156
:10B1800006001B6B98470723BFE78B88002BCDD1A8
:10B19000CB88002BCAD14E887F2EC7D890F89C321E
:10B1A000032BC3D0F1B280F89E1202F037FA20468A
:10B1B00000F0AEF91EB1022384F89C32B9E70123F6
:10B1C000FAE78E78464F012E3E7003D9FFF73DFF18
:10B1D0000325AEE790F89C32022B08D0032B14D045
:10B1E000FFF733FF39782046FFF71BFEF0E7002E0C
:10B1F00066D001214160FFF70DFE05462046002D77
:10B2000095D100F085F90323D6E75EB9022380F8D3
:10B210009C3246603146FFF704FE204600F078F984
:10B22000354686E7416801294AD0C9B2FFF7F9FDE2
:10B23000397861602046FFF7EDFD064600283FD0D3
:10B240002046FFF702FF21792046FFF7EAFD02239F
:10B2500084F89C32E4E7CA88012A7FF467AF90F84B
:10B260009C32022B05D833B10146002341F8083F38
:10B270003EE7032B04D02046FFF7E7FE002558E702
:10B28000011D35E790F89C32013B022BF3D8CB88A7
:10B29000022B7FF44BAF0123C360D0F8A4320BB173
:10B2A0000323C360022204F10C01204600F006F9DA
:10B2B0003D463EE74B88012B7FF43BAFC4F8A432F8
:10B2C000204600F025F934E790F89C32013B022B30
:10B2D000D1D84B88012B7FF42CAF0023EEE700BFC1
:10B2E0006806002070B50B7803F06002402A04461F
:10B2F0000E4601D05B0616D494F89C32013B022B1B
:10B3000011D83379012B0ED8D4F8B83231469B6866
:10B3100020469847F38805461BB910B9204600F02F
:10B32000F7F8284670BD2046FFF78FFE0025F8E7A6
:10B3300070B50B7803F06003202B04460D4629D02E
:10B34000402B27D0A3BB6B788A880979012B40D08A
:10B35000032B27D063BB90F89C32022B59D0032BD0
:10B3600026D101F00F0312F0800F4FF0140202FB00
:10B3700003035DD09B8CDBB101F07F05013505EB4C
:10B38000850500EB850511F07F035DD12B6002225E
:10B39000294649E0D4F8B832294620469B68BDE8E2
:10B3A0007040184790F89C32022B29D0032B03D011
:10B3B0002046FFF74AFE0AE06B882BB94A0603D005
:10B3C000EB880BB902F018F9204600F0A1F8002034
:10B3D00070BD90F89C32022B12D0032BE8D16B8801
:10B3E000002BF4D14E0601D002F00FF9204600F0F8
:10B3F0008FF8D4F8B83229469B6820469847E6E78C
:10B400004B06D5D002F0F8F88021204602F0F4F87F
:10B41000DDE74906CCD113064CBF00F1140100F55D
:10B42000AA7100230B600222204600F047F8CEE705
:10B43000B3F86431002BBBD001F07F05142303FB6C
:10B44000050505F5AA759EE7204602F097F808B1B4
:10B4500001239BE728609AE70B7803704B784370D1
:10B460004B8843808B888380CB88C380704710B51E
:10B470008021044602F0C0F820460021BDE81040BB
:10B4800002F0BAB830B588B100240138234601343F
:10B49000055D002DFAD1DBB201335B0013800B7028
:10B4A00003234B70022310F8012F02B930BDCA5498
:10B4B0005A1CD2B202338D54DBB2F4E710B5022429
:10B4C0001346C0E90622C0F894420A46002102F061
:10B4D000AEF8002010BD08B513460A46002102F060
:10B4E000A6F8002008BD10B503241346C0E9562273
:10B4F000C0F894420A46002102F0A2F8002010BDD4
:10B5000008B513460A46002102F09AF8002008BD4B
:10B5100008B50423C0F8943200231A46194602F0F5
:10B5200086F8002008BD08B50523C0F89432002332
:10B530001A46194602F084F8002008BD62B670472A
:10B5400072B67047044B054A93F8F7304340C3F393
:10B55000000382F8A030704774440020000240428B
:10B5600008B54FF00F00FFF7EDFF054B41F28832B1
:10B57000DA6201225A611A6842F001021A6008BDBB
:10B58000000C0040034B1A6822F001021A600022EE
:10B590005A627047000C0040034B984228BF18467F
:10B5A000024BD862704700BFFFFF0F00000C004045
:10B5B000437C10B55BB1104AC47C53690F4923F436
:10B5C000A24351F8241023F010030B435361817CF4
:10B5D00089B1094A0A48536950F8211023F42243DB
:10B5E00023F020030B435361064B01225A611A6872
:10B5F00042F001021A6010BD0004024084060020DF
:10B60000C80700200008004082B00023ADF80130D8
:10B610008DF803301C4B1D4A93F835318DF80030FE
:10B62000107AD9B260F300018DF8001092F828006A
:10B63000C9B260F341018DF80010154991F8380046
:10B640009DF8001060F382018DF8001011799DF8CB
:10B65000002061F3C3028DF800201BB1D2B2534029
:10B660008DF80030009B0020DAB262F30700C3F3CC
:10B67000072262F30F20C3F3074262F317401B0E49
:10B6800063F31F6002B070477444002000824042A0
:10B6900000024042084B094AB3F87830127B184642
:10B6A00062F38610064A117E127F61F3410062F355
:10B6B000820003B1584070477444002000024042A9
:10B6C000008240420A4A1378C90023F0090301F0BE
:10B6D00009010B431370074B93F80C3100B1DB43A6
:10B6E000117803F0010363F382011170704700BF0A
:10B6F0009403002074440020074B1B784FF0000097
:10B70000C3F3400262F34100044A1278C3F380039A
:10B71000534063F3000070479403002000824042CE
:10B72000044B054A93F8F230DB4303F0010382F83F
:10B73000803070477444002000024042064B074AA4
:10B7400093F8F20011781279034661F3000362F373
:10B7500041035840704700BF74440020000240423B
:10B76000064B93F87C305840054BC0F30002C0F301
:10B77000400083F8A42083F8BC0070477444002084
:10B7800000024042074B084A93F87C0092F82410CC
:10B7900092F83C20034661F3000362F341035840F2
:10B7A000704700BF744400200002404272B6036834
:10B7B0001943016062B67047034672B600681A68A2
:10B7C00022EA0101196062B67047034672B600684A
:10B7D000196062B670470000014B1868704700BFDF
:10B7E000440600200F4B984214D003F58063984222
:10B7F00012D003F58063984210D003F5806398421D
:10B800000ED003F5806398420CBF452348230648B9
:10B81000437070474123FAE74223F8E74323F6E7F2
:10B820004423F4E700000240400200202DE9F047E5
:10B83000304C314D237E43F0010380460E461746BF
:10B84000237605F590792B7A23612B7823702B6969
:10B8500068686360B8F1000F01D1FFF7C3FF2B6A7E
:10B86000E3606368A0605A1E53425341627E63F3F3
:10B8700082026276394620462435B0474D45E2D1F2
:10B880001E4DDFF870A00223238305F5A8792B7ADB
:10B8900023612B782370EB6868686360B8F1000F50
:10B8A00001D1FFF79FFF6B69A060E3603946504606
:10B8B0001835B0474D45EAD1114B1D68C5B1DFF8C9
:10B8C0003490EB6823612B7823706B68A868636001
:10B8D000B8F1000F01D1FFF785FF2B8A23836B6935
:10B8E000A060E36039464846B047AD69002DE8D115
:10B8F000BDE8F087CC060020200100204402002093
:10B90000C806002010B5064B1B6833B11C78844272
:10B9100004D15C688C4201D15A6110BD9B69F4E787
:10B92000C80600202DE9F041574DD5ED207AF5EEFF
:10B93000C07AF1EE10FA8CB040F399805349544824
:10B94000742210F049FE002800F09180514F9FEDC5
:10B95000527AD7ED227AF4EEC77AF1EE10FA29DCAA
:10B960009FED4E7AF4EEC77AF1EE10FACCBF0C26BA
:10B970001926694601A8FEF72FFB44494448742262
:10B9800010F03AFE97F9F330002B15DA95F8753080
:10B990006FF3000385F87530414B1B7833B1D5F850
:10B9A00088309FED400A4FF0000098473E4BC5F8A5
:10B9B00088305CE00126DCE7FEF7EEFA049BDFF856
:10B9C000F080002B0CBF0121022141434046B1FB16
:10B9D000F6F10DF09FFA95F8753060F3000385F8E5
:10B9E00075300028D8D04FF08044304BC5F88830EF
:10B9F000236823F0010314222360002107A810F01C
:10BA000009FED8F80030013E013B06A92046089304
:10BA10000696FEF7FFFA236A23F010032362A36958
:10BA200023F4E643A361A36943F4C043A361002365
:10BA3000A36397F8F23013F0040F236A15BF43F0A5
:10BA4000200323F020032362236215BF6368636829
:10BA500043F4806323F4806363604FF080431A6A89
:10BA600042F010021A621A6842F001021A6095F858
:10BA700075300F4813F0010F08BF00200CF0FEFFD7
:10BA800001200CB0BDE8F081502F0020F4440020CC
:10BA9000040700207444002000007A450000484359
:10BAA000000700200000000065C30008F5C300087F
:10BAB00078070020014800210DF09EBA7807002089
:10BAC00070B504461C2010F077FD024688B123466D
:10BAD000054604F11806186859682C4603C4083353
:10BAE000B3422546F7D10649002393610B680BB991
:10BAF0000A6070BD19469B69002BFBD18A61F8E78B
:10BB0000C806002070B5054650B10024E3B263F3C7
:10BB10000F2663F3070630460134A847042CF5D1FD
:10BB200070BD0000084B40B1596944F20640014322
:10BB300059611A6802431A6070471A6822F48842F1
:10BB400022F00602F7E700BF003C01402DE9F04F6C
:10BB50008C498D4E054690F8F4008FB01023013BC0
:10BB600083EA000251F8222046F82320002BF6D168
:10BB700095F8F500854C864A1021013981EA0003C9
:10BB800052F8233044F821300029F6D1814B1F7838
:10BB9000002F00F0C881142209A810F03BFDDFF847
:10BBA0001892326802230C93D9F8143023F42243FC
:10BBB00023F020031343C9F81430D9F81430226855
:10BBC000754C23F4A24323F010031343C9F8143037
:10BBD000D4F88420714B9A4201D1FFF7A3FED5ED32
:10BBE0003F7A6F4A6F48F7EE006A77EEE67AB2EE78
:10BBF000047A67EE877AFCEEE77A17EE903A591EE0
:10BC0000116094F8C02112F0040F00F0AB80D5ED64
:10BC1000407AF5EEC07AF1EE10FA40F3A38077EEA9
:10BC2000E67A67EE877AFCEEE77A17EE902A012A29
:10BC300000F29480022303605B4BC4F8BC305B4B82
:10BC40005B4CD96201225A610720FCF7CFFF082024
:10BC5000FCF7CCFF0920FCF7C9FF1720FCF7C6FF53
:10BC60002820FCF7C3FF95F8353195F83661B5F813
:10BC700078205E4016F0200F14BF0223012316F037
:10BC8000100F079314BF0223012316F0080F069329
:10BC900014BF0223012316F0040F059314BF0223DF
:10BCA000012316F0020F049314BF02230123039310
:10BCB000B5F87A305340DAB213F0080F019214BF8E
:10BCC0000222012213F0040F029214BF0222012269
:10BCD00013F0020F009214BF4FF0020B4FF0010B54
:10BCE0004FF008084FF0000AD4F80C11B1F5802F7E
:10BCF00008F1FF3807D094F8040184F812A1012359
:10BD00008340C4F8083194F8FC30232B00F25D81A5
:10BD1000DFE813F01E012C0054000C0116015B013A
:10BD20005B0154012401240124012C012C012C016C
:10BD30003401340134013C013C01440144014C0113
:10BD40004C015B015B015B015B015B015B01540129
:10BD50005B015B015B015B015B015901914218BF13
:10BD6000134668E700230360124B66E795F87A30C4
:10BD7000019ADB4303F0010302F00100013084F873
:10BD8000120123E0C0F30108C80700208406002048
:10BD900080F3010869060020502F002025B9000813
:10BDA000FC060020F806002041C000080008004002
:10BDB00020010020B1B500080004024095F87A3057
:10BDC00084F812B183F00203C3F34003B1F5802F6E
:10BDD0003AD1B4F8143103F47873A3B38348D4F898
:10BDE00008310168824A0B4394F80411036001F0A2
:10BDF000FC0000F1804000F59C308900836801F070
:10BE00000C014FF00F0C0CFA01FC23EA0C0CD4F8D7
:10BE10000031934200F0DB804B4500F0DA8002F500
:10BE20000062934200F0D78002F58062934200F0F6
:10BE3000D48002F5806293420CBF042307238B4019
:10BE400043EA0C0383603B4694F804010B9394F897
:10BE5000123101218140022B099100F0C080042B96
:10BE600000F0BF80012B40F0BE80624B0A93D4F8F3
:10BE7000000109A9FDF7A0F85F4B242101FB08335D
:10BE8000243C83F815A0B8F1000F7FF42DAF574B79
:10BE90005A4A1C6844F4894343F04E035361E20755
:10BEA00007D5062042460221FCF760FE0620FCF77B
:10BEB0008FFE002202210720FCF758FE0720FCF726
:10BEC00087FE002202210820FCF750FE0820FCF724
:10BED0007FFE002202210920FCF748FE0920FCF722
:10BEE00077FEE30607D50A2000220221FCF73EFE7A
:10BEF0000A20FCF76DFE002202211720FCF736FE17
:10BF00001720FCF765FE022100222820FCF72EFEF8
:10BF10002820FCF75DFE95F83401394B00215B6D5C
:10BF200000F0010098470FB0BDE8F08F95F87A3027
:10BF3000009A83F00403C3F3800384F8122145E7D9
:10BF400095F87A30029A83F00803C3F3C003F4E74C
:10BF50002B4B93F8C031C3F3401337E795F83631D4
:10BF6000DB4303F0010306F0010007E795F83631E3
:10BF7000039A83F00203C3F34003DEE795F83631FA
:10BF8000049A83F00403C3F38003D6E795F83631AF
:10BF9000059A83F00803C3F3C003CEE795F8363162
:10BFA000069A83F01003C3F30013C6E795F8363101
:10BFB000079A83F02003C3F34013BEE7042384F8F9
:10BFC00012313B4602E70223F9E70023FEE6002395
:10BFD00035E7012333E7022331E703232FE7094B3A
:10BFE00044E7094B42E7CDF828A040E7740600205B
:10BFF000000002400000111020010020003C014020
:10C00000502F0020000021100000311070B50A4CA4
:10C01000206050B1616011B9084D236803B970BD4B
:10C020002E6A0DF0DFFAB047F7E760600029F6D01E
:10C03000BDE87040084700BF18010020C42E002052
:10C04000437C827C10B5CBB11449C47C4B69144845
:10C0500023F4A24350F8240023F0100303434B6160
:10C060005AB1104B1A70104B1A68104BDA62012249
:10C070005A611A6842F001021A6010BD002AFCD011
:10C0800006490B484B6950F8222023F4224323F041
:10C09000200313434B61054BE9E700BF0004024056
:10C0A00084060020C4060020F80600200008004096
:10C0B000C80700202DE9F04790B09E4B9E4D00240C
:10C0C00001945A6C42F001025A645A6C02F0010267
:10C0D0000192019A02941A6C42F001021A641A6CDD
:10C0E00002F001020292029A03941A6C42F00202D8
:10C0F0001A641A6C02F002020392039A04941A6CF6
:10C1000042F004021A641A6C02F004020492049AC7
:10C1100005941A6C42F008021A641A6C02F00802C4
:10C120000592059A06945A6C42F480325A645B6C0C
:10C1300003F4803306930646142221460BA8069B7F
:10C140004FF0010910F066FA0223CDF830900E93FB
:10C150002F46A8464FF0180AFB68052B17D13B7AEB
:10C16000786809FA03F30B930AFB04830BA91B7C81
:10C1700013F0040F14BF112301230C93FCF71CFFD1
:10C180007A686E4B13445B013A7A03F822900134CB
:10C190000E2C07F11807DFD1694F0021BB6B64201B
:10C1A000984700244FF001094FF0180AEB68052B5F
:10C1B0001BD02B7A686809FA03F30B930AFB0483FC
:10C1C0000BA91B7C13F0040F14BF112301230C9344
:10C1D000FCF7F2FEEB680B3B012B06D86A68574B65
:10C1E00013445B012A7A03F8229001340E2C05F1E6
:10C1F0001805DBD14F4CDFF8688100250121079538
:10C200000C91236C43F008032364236C03F00803B0
:10C210000793079B4B4B1A6822F001021A601A69B8
:10C2200022F001021A615D62DA680A43DA603220A4
:10C230002A46FCF79BFC4FF48023C8F8043008958D
:10C24000236C414843F004032364236C03F004038C
:10C250000893089B3D4B1A6842F427721A60FA69EA
:10C26000B2FBF0F2013A9A621A6922F003021A61F3
:10C270005D62DA68012142F00102DA601E200A469E
:10C280002946FCF773FC4FF08043C8F8003097F85C
:10C29000C031980723D50995636C43F480336364F8
:10C2A000636C03F480330993099B294B1A6842F4A9
:10C2B00027721A60FA6942F21071B2FBF1F2013A88
:10C2C0009A621A6922F001021A614FF4C872DA62A6
:10C2D000DA6842F00102DA601820FCF779FC154BAD
:10C2E0001C481D4C00210A911A6C42F001021A648C
:10C2F0001B6C0D9103F001030A9308220A9B022391
:10C30000CDE90B230BA901230F93FCF755FED7F8BA
:10C310005C31124898473368A3F115014B424B41F9
:10C3200023703046D7F818319847207810B0BDE810
:10C33000F08700BF0038024044020020140010C201
:10C34000502F0020000C004080969800000800400C
:10C3500000400140000402406906002000F401088A
:10C3600000E100E0094B0A4A93F8F23010F0010FA7
:10C3700004D1C3F3000382F8803070475840C0F303
:10C38000400082F88400FFF7CBB900BF744400205E
:10C3900000024042134A144908B55368834217D13A
:10C3A00000230B70114B93F8F310C90741BF93F8AA
:10C3B000F2300F49C3F3000381F88030517D4FF014
:10C3C000804319B152689A63986300E0996308BD8D
:10C3D0000B781BB9FFF7A4F901230B704FF08043D2
:10C3E000F2E700BF78070020000700207444002017
:10C3F0000002404210F0010108B5134A07D092F83C
:10C40000F2305840114BC0F3400083F8840092F89A
:10C41000F330DB0714D449B1FFF782F90C4800214F
:10C420000CF0EAFDBDE80840FFF7B4BF92F8F23027
:10C43000064AC3F3000382F88030054B5868F1E7E1
:10C440000029FAD0EAE700BF74440020000240420D
:10C45000780700202DE9F84F664C674B6360674B07
:10C46000A360674B2361674B6361674B6363FDF7B1
:10C47000A3FD4FF480636362644BA363644BC4F811
:10C480001831644BC4F8A830634BC4F8AC30634B2C
:10C49000C4F8B030624BC4F8B830624BC4F8BC305A
:10C4A000614BC4F8CC30614B6365614BA365614B54
:10C4B000E366614B2367614BC4F82031604BC4F8DD
:10C4C0001C31604B6366604BA364604BE364604B5C
:10C4D000E363604B2364604B6364604BC4F8943146
:10C4E0005F4BC4F88C315F4BC4F85C315E4BC4F8D1
:10C4F0006031E06100F056FC00F034FE0EF0B4FB59
:10C50000032384F86831594B5949C4F88431594898
:10C51000594BC4F888310CF063FAFF2384F8C0311A
:10C5200094F8C431554943F0400384F8C431544B66
:10C530004E680A780020844605469E464FF0010862
:10C540004FF0240944F2CE4A1F69B7F5802F1FD15E
:10C5500016B91E464FF0010C1F7A501C25321A7076
:10C5600008FA07F709FB05E2DF6092F818B04BF014
:10C57000180B82F818B017EA0A0F178B14BF4FF088
:10C58000000B4FF0070B6BF349171783C2B2012062
:10C590000135082D03F12403D6D1BCF1000F00D0E2
:10C5A0004E6000B10A703749374A4D680B78002059
:10C5B00007468446D668092E07D10DB915460127CE
:10C5C000581C64331370C3B201200CF1010CBCF190
:10C5D0000E0F02F11802EDD107B14D6000B10B70E2
:10C5E00005F054FD2068A0F10A0358425841BDE807
:10C5F000F88F00BF502F00203CF3010848F30108DA
:10C600004FF3010874F30108B5C000080DC000081D
:10C610004DBB000861B5000885B5000845B50008A8
:10C6200099B50008B1B5000805BB000825BB000896
:10C6300009B6000861B7000885B70008F9B6000818
:10C64000C5B6000895B600083DB5000841B500081C
:10C65000ADB70008B9B70008CBB70008D9B70008D4
:10C660002DB80008C1BA000805B90008F9C80008CB
:10C670005117020818F4010815C900086C060020BB
:10C68000200100207806002044020020054B1A6992
:10C69000D20706D56FF001021A61034BD3F8C03000
:10C6A00018477047000C0040502F0020154B1648CB
:10C6B0001A6922F0010210B51A61144AD96A126887
:10C6C0009142134914D1134A134C1268DA624A6931
:10C6D000247822F4224250F8240022F0200202435F
:10C6E0004A6101225A611A6842F001021A6010BDC3
:10C6F0004B69026823F4224323F0200313434B6168
:10C70000F5E700BF00080040C8070020F806002039
:10C7100000040240FC060020C406002013B5144BA0
:10C72000144C6FF001021A612378D9070DD56FF30D
:10C7300000032370FEF768FF019004F0C7F8C0B251
:10C7400018B10D4B0198DB6D984723789A070CD5EB
:10C750006FF341032370FEF79DFF030705D5064BDA
:10C760009B6E02B0BDE81040184702B010BD00BF7C
:10C770000040014080060020502F0020104A5369DD
:10C7800013F0020313B511D053610E4B93F8C0217F
:10C7900092070DD50C4A137843F0010313700B4B2D
:10C7A00001225A611A6842F001021A6002B010BDFB
:10C7B000DC6DFEF729FF234602B0BDE810401847A4
:10C7C000003C0140502F0020800600200040014026
:10C7D000104A536913F0040313B511D053610E4B83
:10C7E00093F8C02192070DD50C4A137843F001034A
:10C7F00013700B4B01225A611A6842F001021A6051
:10C8000002B010BDDC6DFEF7FFFE234602B0BDE8AE
:10C8100010401847003C0140502F002080060020A7
:10C8200000400140074A536913F0080310B508D0CF
:10C830005361054B9C6EFEF72DFF2346BDE810406B
:10C84000184710BD003C0140502F0020094A536991
:10C8500013F4787110B50BD013F0C00F516107D0ED
:10C86000054B9C6EFEF716FF2346BDE810401847A7
:10C8700010BD00BF003C0140502F0020124A5369F8
:10C8800013B513F47C4114D013F4884F516110D0C8
:10C890000E4B93F8C02192070DD50D4A137843F043
:10C8A000010313700B4B01225A611A6842F0010216
:10C8B0001A6002B010BDDC6DFEF7A6FE234602B082
:10C8C000BDE81040184700BF003C0140502F002039
:10C8D000800600200040014038B5064C23683BB17B
:10C8E0002568013D25601DB963680BB198476560F7
:10C8F00038BD00BF1801002008B5044B0449B3F847
:10C900006A210FF079FE012008BD00BF502F0020E2
:10C9100000400008F7B5194F1949B7F86A210546D4
:10C920000FF05AFE40B3FCF709FA044650B9154817
:10C93000134E01A9FCF7F0FAB7F86A71044637B94B
:10C94000FCF70EFAB4FA84F0400903B0F0BD0435E8
:10C95000002CF5D12346314635F8042C0120FCF794
:10C9600031FA2346B11C35F8022C0120FCF72AFAD3
:10C9700004360446043FE2E70120E6E7502F00209A
:10C98000004000089803002070B598B0424C002584
:10C99000FCF79AF81422002107A80FF03BFE05953A
:10C9A000236C3E4A43F080532364236C03F080538E
:10C9B0000593059B0695136823F4404343F4004315
:10C9C0001360136803F440430693294610220EA80F
:10C9D000069B0FF01FFE01224FF480330226CDE9A3
:10C9E0000C234FF48003CDE9126319214FF4A8738F
:10C9F000CDE9141304200723CDE916030CA8FDF795
:10CA000051F80F23CDE9073631464FF4805307A87C
:10CA1000CDE90A350995FDF71DFA0195236B43F021
:10CA200001032363236B03F001030193019B029530
:10CA3000236B33432363236B33400293029B0395A1
:10CA4000236B43F004032363236B03F0040303937A
:10CA5000039B0495236B43F008032363236B03F0CC
:10CA600008030493049B0795236B43F0100323638F
:10CA7000236B03F010030793079B0C95236B43F084
:10CA800080032363236B03F080030C930C9B03F060
:10CA900017FD284618B070BD0038024000700040F5
:10CAA00070470000064B58681B6880B29BB29842E2
:10CAB00094BF00F2FF3000F1FF30C01A80B270471F
:10CAC00008080020044A53681068834288BF00F5B4
:10CAD0008060C01A80B2704708080020014B1A68B5
:10CAE0005A60704708080020064B1A681A4418213B
:10CAF000D1721A685A601A680132C2F309021A60C8
:10CB0000704700BF08080020F8B50D4D0D4F2C6888
:10CB100001340646C4F308046B68A3420AD02B68AC
:10CB2000094A2C602B4401201E72D36843F0800315
:10CB3000D36004E0D7F8BC3198470028ECD1F8BDA9
:10CB4000140C0020502F00200010014010B50446A6
:10CB500014F8010B00B910BDFFF7D6FFF8E738B5A0
:10CB600004464518AC4200D138BD14F8010BFFF75C
:10CB7000CBFFF7E7044AD36823F08003D360034B6D
:10CB80001A685A60704700BF00100140140C002062
:10CB9000084A53681068834288BF00F50070C01AC5
:10CBA000054B1B6883F04003C3F3801380B2184425
:10CBB00080B27047140C002000100140074A5368EF
:10CBC000116899421FBFD1180133C3F30903C87A12
:10CBD00014BF53604FF0FF30704700BF08080020BB
:10CBE000014B1B68184700BFAC030020024A0346F4
:10CBF000106803B113607047AC0300202DE9F74FB4
:10CC0000DFF8CCA00C23CAF80C300546FDF7D4F9A8
:10CC10000746FDF7D1F90190FDF7CEF90646FDF77D
:10CC2000CBF98146FDF7C8F901994FEA957B1924A4
:10CC3000AD0080462A465B46A1FB0401FBF79EFD42
:10CC40002A4601905B46A6FB0401FBF797FD019A7B
:10CC50006426B0FBF6F306FB13231B013233B3FB50
:10CC6000F6F303F0F00301932A465B46A9FB0401A7
:10CC7000FBF784FD2A4681465B46A8FB0401FBF7CF
:10CC80007DFDB0FBF6F806FB1898019B4FEA0818EB
:10CC900008F13208B8FBF6F808F00F0843EA080874
:10CCA0002A465B46A7FB0401FBF768FDB0FBF6F6DE
:10CCB00008EB0616CAF80860DAF80C3043F40053A3
:10CCC00043F020030120CAF80C3003B0BDE8F08F18
:10CCD00000100140F0B5214A937813F0040689B0A2
:10CCE000074638D143F0040393701D4B01965A6CEC
:10CCF0001C4D42F010025A645A6C02F0100201926C
:10CD0000019A02961A6B42F001021A631B6B03F040
:10CD100001030293029B0FCD03AC0FC42B68124892
:10CD2000236003A9FCF748F93846FFF767FF0F4C6B
:10CD3000324631462520FBF719FF2520FBF748FF37
:10CD4000D4F85C310A4898470A48D4F85C319847CF
:10CD5000094809B0F0BD0020FBE700BFB003002088
:10CD60000038024028F3010800000240502F002044
:10CD700054F40108B0F401086CF4010801460148BC
:10CD80000DF02EBF08080020054BDA6820B122F014
:10CD90002002DA600120704742F02002F9E700BF6C
:10CDA0000010014001480DF001BF00BFB803002092
:10CDB00038B5184C2368990615D56568164BEDB241
:10CDC0001B682846984770B9144B1A685968013295
:10CDD000C2F309028A421DBF19681A60C9180122EC
:10CDE0000CBF5A72CD7223681A0612D5E3681B066F
:10CDF0000FD50B4A5368D1180133C3F30803097ADE
:10CE00006160536012689A4202BFE36823F08003B6
:10CE1000E36038BD00100140AC030020080800208A
:10CE2000140C002082B00D4B002100915A6C42F48A
:10CE300080425A645A6C02F480420092009A019136
:10CE40001A6C42F080521A641B6C03F080530193F9
:10CE5000019B072002B0FBF777BE00BF00380240FD
:10CE60007047FEE7FEE7FEE7FEE770477047704752
:10CE700008B5FBF743FEBDE80840FFF72DBD0000F5
:10CE80000148FCF707BA00BF1029002001207047B5
:10CE900008B50FF055FB162303604FF0FF3008BDB7
:10CEA00008B50FF04DFB16230360FEE770B50D4685
:10CEB00014460E46731B9C4201DC204670BDAFF346
:10CEC000008006F8010BF5E770B50D4614460E46D6
:10CED000731B9C4201DC204670BD16F8010BAFF3BA
:10CEE0000080F5E74FF0FF3070474FF400534B6080
:10CEF0000020704701207047002070470A4A1168DF
:10CF000008B5034609B90949116010686946034428
:10CF10008B4206D90FF014FB0C2303604FF0FF3057
:10CF200008BD1360FCE700BF1C0E00201850002055
:10CF3000054BD3F8882042F47002C3F888204FF0E4
:10CF400000629A60704700BF00ED00E0054B586832
:10CF50001B6880B29BB2984298BF00F58060C01AEF
:10CF600080B27047240E0020014B1A685A60704747
:10CF7000240E0020064B1A681A441821D1721A6830
:10CF80005A601A680132C2F309021A60704700BF82
:10CF9000240E0020074A5368116899421FBFD11818
:10CFA0000133C3F30903C87A14BF53604FF0FF3055
:10CFB000704700BF240E0020014B1B68184700BFBC
:10CFC000C8030020024A0346106803B1136070478B
:10CFD000C803002038B5084C084D207001212046B8
:10CFE00000F074F9012801D0012004E0D5F8BC312B
:10CFF00098470028F2D138BD200E0020502F002085
:10D00000014601480DF0ECBD240E002070B51C4C0B
:10D010001C4D217B04F20D1304F10D02002908BF01
:10D020001346A3602188A06800F050F9012819D0A8
:10D0300023689B0607D1144D124E0021284600F0AC
:10D0400045F9012815D0227B104B82F00102A3F58F
:10D050008071002A08BF0B46A3600023227323605F
:10D06000012005E0D5F8BC3198470028DAD100202E
:10D0700070BDD6F8BC3198470028DED1F7E700BF75
:10D0800030120020502F0020210E00203D130020E0
:10D0900070B50646FAF7DEFF044648B1174D2B6817
:10D0A0009BB16A6803449A420FD2FFF7AFFF60B9A1
:10D0B00070BD3146A8682A600FF09EFAFFF7A6FF00
:10D0C0000028F5D06B68E41A1E446A68A242F0D3C7
:10D0D000002CEDD02246A86831460FF08DFA2B685F
:10D0E00023442B60AB6823443444AB6014F8013C08
:10D0F0000A2BDDD1BDE87040FFF788BF3012002059
:10D1000070B506460C4649B1154D2B68A3B16A6847
:10D110000B44934210D9FFF779FF68B970BD3146CF
:10D12000A8682A600FF068FAFFF770FF0028F5D0B2
:10D130006B68E41AA4B21E446A68A242EFD3002CC2
:10D14000ECD03146A86822460FF056FA2B68A96841
:10D15000234421442B60A960BDE87040FFF756BF0F
:10D160003012002008B500F05DF8044B044803F1CC
:10D170000D029A604FF480725A6008BD3012002090
:10D18000E0F401082DE9F0410F4F104D0446461818
:10D190004FF00108B44201D1BDE8F0813B6820782E
:10D1A000984770B92B686A680133C3F30903934247
:10D1B0001BBF2A68217885F8098052191CBF2B6093
:10D1C000D1720134E6E700BFC8030020240E00201E
:10D1D000DFF834D0002103E00C4B5B58435004319E
:10D1E0000B480C4B42189A42F6D30B4A02E000233C
:10D1F00042F8043B094B9A42F9D3FFF799FE0FF02E
:10D20000B7F9FFF7C1FB704700000120F869020879
:10D2100000000020280600202806002014500020CE
:10D22000FEE7000008B50F490F480022FDF7C5FDD5
:10D2300008B1FFF735FC0D490B48FDF7D6FD08B1E5
:10D24000FFF72EFC0A490848FDF773FD08B1FFF708
:10D2500027FC0548FDF7DCFD18B1BDE80840FFF7E5
:10D260001FBC08BDE003002040140020080000207F
:10D27000CC0300200020704700207047002070473A
:10D2800038B5074D09680446FFF77CFF214628465C
:10D29000FDF75EFD2846FDF779FD002038BD00BF93
:10D2A0004014002010B5064C064900222046FDF728
:10D2B00047FD05492046FDF74BFD002010BD00BF8E
:10D2C00040140020101F00201017002010B5094C3A
:10D2D000D4F8BC32D3F814320A4643B9014620468A
:10D2E000FDF72EFD2046BDE81040FDF737BD0120BB
:10D2F00010BD00BF40140020122301480B8070476E
:10D30000FC030020042301480B8070471004002018
:10D31000002370B54D1C1E46040FB0F1204F34BFE2
:10D320003034373401F8134005F813600133DCB2B0
:10D33000A2424FEA0010EFD870BD00001A2310B5CA
:10D340000B800A4BD3F8100AD3F8182A80180AD099
:10D35000D3F8144A06490822FFF7DAFF04221031F5
:10D360002046FFF7D5FF034810BD00BF0070FF1F28
:10D37000160400201404002010B5044C04480A468A
:10D380002146FEF77FF8204610BD00BF1027002081
:10D3900024F5010810B5044C04480A462146FEF75E
:10D3A00071F8204610BD00BF1027002037F5010896
:10D3B00010B5044C04480A462146FEF763F820469F
:10D3C00010BD00BF102700204DF5010810B5044C1A
:10D3D00004480A462146FEF755F8204610BD00BF16
:10D3E0001027002058F5010830B5044689B01422F2
:10D3F000002103A80FF00EF92368B3F1A04F2ED13E
:10D40000184C194800250195236B43F00103236351
:10D41000236B03F0010301934FF4C052019B0223DD
:10D42000CDE9032303210A23CDE9061303A9FBF762
:10D43000C3FD636B43F0800363630295636C43F445
:10D4400080436364636C03F48043029343202A4661
:10D450002946029BFBF78AFB4320FBF7B9FB09B087
:10D4600030BD00BF003802400000024000F571717D
:10D47000D0F80404FDF7DDBC1C2303FB0103D0F846
:10D480000404D3F80822FDF704BD1C2303FB0103A9
:10D49000D0F804049A6CFDF72EBDD0F80404FDF713
:10D4A000B6BDC368022B10B5044601D0FFF7F8FAE9
:10D4B000D4F804040121FDF794FDD4F80404BDE878
:10D4C0001040FDF766BD000010B50446D0F8040416
:10D4D000FDF78AFD2268D2F8003E43F00103C2F84E
:10D4E000003E236A23B1034A136943F00603136124
:10D4F00010BD00BF00ED00E0D0F80404FDF77DBDD5
:10D50000D0F80404FDF791BDD0F80404FDF78BBDFD
:10D51000D0F80404FDF78BBDD0F80404FDF789BDF5
:10D5200008B5037802462BBB13484FF0A041C0F862
:10D530000424C2F8C4020422C0E900120222C0E995
:10D540000323C0E90623C0E90833C0E90B33FBF726
:10D55000FDFD08B1FFF7A4FA80210748FCF79DFA0A
:10D56000402200210448FCF778FA03488022012178
:10D57000FCF773FA002008BD1029002011F0800F7D
:10D58000D0F8C4324FF01C021BBF01F07F0102FB38
:10D59000013102FB013191F83E0008BF91F8FE0114
:10D5A0007047D0F8C402FCF7C2B9000003289ABF44
:10D5B000014B185C0320704766F5010808B5D0F8E8
:10D5C000C402FBF748FEBDE80840FFF7EFBF10B507
:10D5D0001446D0F8C4021A462346FCF71DF9BDE8EC
:10D5E0001040FFF7E3BF08B5D0F8C402FCF74CF9D0
:10D5F000BDE80840FFF7DABF08B5D0F8C402FCF771
:10D60000BEF9BDE80840FFF7D1BF08B5D0F8C402A5
:10D61000FCF7EDF9BDE80840FFF7C8BF08B5D0F842
:10D62000C402FCF7E5F8BDE80840FFF7BFBF08B546
:10D63000D0F8C402FCF783F9BDE80840FFF7B6BF95
:10D6400008B5D0F8C402FCF74EF9BDE80840FFF772
:10D65000ADBF0000004870473004002010B5074CF3
:10D66000237853B9637843B9054BDB6E984794F838
:10D67000243043F0200384F8243010BD18310020FA
:10D68000502F002038B505460BF0ACFF022808D01B
:10D6900006F038FD044610B12846FFF7DFFF2046AC
:10D6A00038BD0124FBE70000004870473C0400201F
:10D6B00008B590F82030224A6FF345132DED028B08
:10D6C00080F820301F4B83ED1B0A90F8203080ED4E
:10D6D000000A6FF3C71380F8203092F8233023F04C
:10D6E000050163F07A0380F82430642382F8213046
:10D6F000154B41F00501D3F8A03082F8231001202A
:10D70000B0EE408A984790ED000A28EE008AB5EE08
:10D71000408AF1EE10FA10D00C4B9FED0D7AD3ED4C
:10D72000157A67EE877AF4EEC87AF1EE10FA4CBFFC
:10D730002B200020BDEC028B08BD2920FAE700BF9A
:10D7400018310020C02D0020502F002074440020EC
:10D750006666663F08B50C200EF02EFF034638B112
:10D76000074A07CA83E8070006490A680AB90B6036
:10D7700008BD11469268002AFBD18B60F8E700BF14
:10D78000B02D0020742E002000487047580400205F
:10D790000A4A00200423F7EE007A32ED017A4000B5
:10D7A000B4EE677AC0B2F1EE10FA03F1FF3318BF9E
:10D7B00040F00100002BF0D1704700BF680400204A
:10D7C00008B5FFF7E5FF0F4B4FF07E510022D961FE
:10D7D000DA6099619A6059615A6019611A600A4B5E
:10D7E000002283F82220C1B2FFF7D2FFC0B28842E4
:10D7F0001FBF064A92F8243043F0020382F8243017
:10D8000008BD00BF48040020C02D002018310020B2
:10D81000064B03EB800191ED240AD1ED027A77EEFD
:10D82000807A91ED280A37EE800A7047C02D0020DB
:10D8300070B407EE902A244B20B1022824D09871AE
:10D8400070BC70471A46044652F8B05F002605F1D6
:10D85000100172ED017AF5EE407A166041F8046D20
:10D86000F1EE10FA18BF44F00104A942F1D1987109
:10D87000002CE5D0154A92F8253043F0040382F8D5
:10D88000253070BC0EF018B8114A142404FB012294
:10D89000D2ED0A6AF8EEE77A01F1280287EEA67A5D
:10D8A00003EB8202D2ED007A82ED007AD3F8B02049
:10D8B000F4EE477AF1EE10FA02EB810114BF012475
:10D8C000002481ED007AD2E7C02D0020183100201D
:10D8D00074440020022331B1012909D00122437090
:10D8E0000270002302E001220170427083707047D1
:10D8F000037000234370817070470000F7B52A4D14
:10D900002A4C95F86510002935D0B0220021204618
:10D910000EF080FE264B1822002118460EF07AFEEB
:10D92000C4F8B000234E3068002836D1224E95F856
:10D930002330E377D6F88030A365FFF741FF1F4916
